:020000040000fa
:080000000001040000000000f3
:020000040000fa
:10000800b6010000b6010000b6010000b60100000c
:10001800b6010000b6010000b6010000b6010000fc
:1000280094010000b6010000b6010000ac1f0000fa
:10003800b6010000b6010000b60100002c20000047
:10004800b6010000b6010000b6010000b6010000cc
:10005800b6010000b6010000b6010000b6010000bc
:10006800b6010000b6010000b6010000b6010000ac
:10007800b60100007e200000b6010000ac010000bf
:100088006e0a0000b6010000b6010000b6010000cb
:10009800b6010000b6010000b6010000b60100007c
:1000a800b6010000b6010000b6010000b60100006c
:1000b800b6010000b6010000b6010000b60100005c
:1000c800b6010000b6010000b6010000b60100004c
:1000d800b6010000b6010000b6010000b60100003c
:1000e800b6010000b6010000b6010000b60100002c
:0800f800b6010000b601000092
:020000040000fa
:10010800b6010000b6010000b6010000b60100000b
:10011800b6010000b6010000b6010000b6010000fb
:1001280094010000b6010000b6010000ac1f0000f9
:10013800b6010000b6010000b60100002c20000046
:10014800b6010000b6010000b6010000b6010000cb
:10015800b6010000b6010000b6010000b6010000bb
:10016800b6010000b6010000b6010000b6010000ab
:10017800b60100007e200000b6010000ac010000be
:100188006e0a0000b6010000b6010000b6010000ca
:10019800b6010000b6010000b6010000b60100007b
:1001a800b6010000b6010000b6010000b60100006b
:1001b800b6010000b6010000b6010000b60100005b
:1001c800b6010000b6010000b6010000b60100004b
:1001d800b6010000b6010000b6010000b60100003b
:1001e800b6010000b6010000b6010000b60100002b
:0801f800b6010000b601000091
:020000040000fa
:10020000ef9120000eff20000e018800000000008a
:1002100000012000200288000c000700c0272200f7
:100220000100200011000700000020000000e00095
:10023000020032000000020000000000d619020097
:10024000000000000040da000000fe004440a90069
:10025000c02820000000e000030032000000200061
:10026000a00188004440a800000006009101880019
:10027000800078000000eb0015003700e2804000ad
:1002800032a0b4009101ba00e280400032a0b40074
:100290009102ba00e280400032a0b4000002eb00fc
:1002a000472bde00f507b200602ce10004003a00a5
:1002b0000059eb008301e900fdff3e000400370018
:1002c0006128e100010032000082eb000400070019
:1002d0001101ba000200e000e8ff3a000000060049
:1002e0003159ba008301e9000c0032002159ba00eb
:1002f0008301e900080032000400e00003003a0036
:10030000e280400032a0b400f5ff370011d9ba00f6
:100310008301e900faff3a008100e800e180400033
:1003200032a0b40000000600841f78000000fa002c
:100330008400a900a443800004f0a7000402ea009e
:100340000402e9004f22de00a44388000080fa0086
:100350004f027800004006000000fa000000fe0096
:1003600086e0a9000080fa00004006000040da00a4
:100370000000fe0003f0a200889fbe008a9fbe001e
:100380008c1f780082010700890133006450e1006e
:100390004f0032006420e1005200320003826c0002
:1003a00007003b000905d0000306d000820f54006f
:1003b0000c065d000200390002003200890178005d
:1003c000030678008582550004003d000003fd000f
:1003d0008103fd008502ea008b854200840f7200d4
:1003e00002003b0060001000e08018006011b800bf
:1003f0000005eb007a28e1000a00390006007800c9
:10040000c75ddd00f707b200878075002d0037005b
:10041000828171000a017800610560008180d1004d
:100420000080d3008502e900f9ff3b00060440008c
:100430008784480002003b0060041400e0841c0034
:100440000988a300070032008a817100828171004f
:10045000610164008904d1000884d3008b05e800a1
:10046000170037000978a30013003a000b00e000e2
:10047000130034008b05e9000804440089844c0013
:100480000a4474000978a3000d003a000b00e00054
:10049000070034008b05e9000804440089844c00ff
:1004a00001003a000b0020000978a300f7ff32009a
:1004b0000001eb0002003700828171000a01780020
:1004c000f80007000cf0a70001f0a0004101370080
:1004d0006420e10002003a00838f6c004101330088
:1004e0000801be000200be003a013700889fbe002e
:1004f0008a9fbe008c1f7800250107001002200093
:1005000002003b00e0488800290137008a006200b1
:100510006408e10002003a00e04888003101370039
:100520006108e100fcff32000800be00030478000f
:100530007000070001f0a1000900070008f0a60004
:10054000040037000001be0091042400b0fd20002b
:1005500088ff070009f0a70001f0a2001d01370085
:10056000889fbe008a9fbe008c9fbe000004be0014
:10057000f20007000800be00890678006420e10050
:1005800008003900040032000160a00012022000bf
:10059000e24888005300370091fc2300b0fd2000a2
:1005a0004e0037000006eb0009f0a10003f823001d
:1005b000020020000800be00900007000600340082
:1005c00001f82300000020000801be0049000700d8
:1005d0000004be002c0020000800be0093e82300a9
:1005e000320a230085000700120034000801be0013
:1005f000d1fd2300703d2b005fff07000005be000a
:10060000b3f32300f27a26000800be00f8000700ca
:1006100003f823000200200056ff07000801be0077
:1006200055ff07000a01be00320007000004be00ab
:100630000c06e8000800be0001f0a1000200200046
:10064000039823006d0007000800be001600350067
:100650000801be00e60007000005be0032cd2c00f8
:1006600043fb230044ff0700809fbe00126928005f
:1006700003d52b000a00be00dd000700620f210039
:1006800013ef2b003cff07000a01be00d800070053
:100690004f01be00170007000801be00d40007008c
:1006a0000801be0034ff07000c00e0000b00320020
:1006b0000c10a70001f0a200b2fd200093fc230063
:1006c0006260e1000400320022a9200063f02300f0
:1006d0000c10a70063f8230027ff07000df0a70008
:1006e00001f0a2004f06be004f05be004f04be0041
:1006f00000000600889fbe008a9fbe008c1f780005
:10070000a3000700aa00330003866c006450e100d8
:100710002e0032006420e100330032006150e1001d
:100720002f0032006120e100310032008585550044
:10073000eb07b00009002000080420000500370086
:100740000804440089844c000a0031000603430079
:1007500087834b000001530081815b00f8ff330069
:100760000203be000800a0000804440089844c0075
:10077000f6ff3900c639dd00830173000100320045
:10078000130020008904d1000884d3000998a30035
:10079000050032000800a7000300a0008904d10072
:1007a0000884d3008b05e8008904d1000884d300b5
:1007b0000001eb000281d2003a00070001f0a10025
:1007c0000cf0a70001f0a000820037006420e100d7
:1007d000840032000801be000200be00f7ff3700af
:1007e0006120e1007f0032006000b800f3ff3700b5
:1007f0000000200001f82700f0ff3700140020005f
:10080000af003700f4ff2f00ad0037000001be003d
:100810004a0007000470a70003f0a1006509b100b9
:10082000160032000d0035006828e1000600350092
:10083000f0ff2f00f1ff27000300e00013003b0052
:1008400001002800000005000000400081804800f1
:100850008502e900fcff3a0008003700f88f4200eb
:1008600002003c008000eb00000005008100d10088
:100870000080d3008502e800fcff3a000300e0009e
:1008800002003b0060001000e0801800000006003d
:100890004f89de0082017800a40037006011b800a3
:1008a000b200370081002000618055000b003d0040
:1008b0000b00200061fe2f000100e1001d0034004c
:1008c00082817100610164008904d1000884d30031
:1008d0000000e800faff3a007100200061006400a7
:1008e000030070000200600009003200610444004f
:1008f000e0844c000988a500050032008b05e80063
:100900006808e10002003a008904d1000884d3009d
:10091000f20f20000258e10005003d00c75ddd0038
:10092000f907b20089807500080078000000060011
:100930000bf827008b00780000000500c70ade00d6
:10094000f107b200f50fb20008003200e1cf42001b
:10095000020032000170a00024000500810f700029
:10096000010032000408050044000500810f7000fa
:1009700002003a00140005008502e9000000400072
:1009800081c04800fcff3b000170a000240005006e
:100990000004be00e9ff07000003be000405be001e
:1009a0000200be00e5ff0700844f7500000006004e
:1009b0000200be006450e100050036006420e10042
:1009c000020036000968a30001003a000800be00da
:1009d0000160a0004f0678004f05be004f04be0026
:1009e00000000600f0ff2f00f1ff2700f9ff37009d
:1009f000889fbe008a9fbe008c1f7800e4ff07001e
:100a0000ebff330003866c006450e10024003200e9
:100a10006420e100270032006150e1002200320032
:100a20006120e100210032008b854200eb07b1001c
:100a30000134b800003ab8000804420089844a0032
:100a4000013ab8000030b8008880400009014a002f
:100a5000040033000000400081804800020149008a
:100a60008b05e900c909dd00830170000100320037
:100a700013002000c814de004814dd004709de0022
:100a80001200b200c808de000884700085ff07006d
:100a900001f0a1000cf0a70001f0a000cdff37008d
:100aa0006120e100cfff32000801be000200be005d
:100ab000f7ff37006150e100fcff3a00c9ff370043
:100ac000889fbe008a9fbe00841f7800b0ff070089
:100ad0004f00780011003300f0ff2f00838f6c006f
:100ae00006003b00040565000a00a7000800370067
:100af00009f0a6001000200008003700820f540003
:100b0000838f5c00030039001000200001003e00cc
:100b10000000200009f0a7000000ea004f05be0019
:100b20004f04be000000e00000000600881f7800af
:100b3000030478000300e00007003d00600010009f
:100b4000e080180060011900e081190002003b00fc
:100b500001f02d00030037000400070008f0a70093
:100b600001f0a0004f04780000000600889fbe003e
:100b70008a9fbe000082700004027100048271002e
:100b8000260032000004be000200be006011b80062
:100b90006b092000950220000182cf000a00390075
:100ba0000541b1000082cf00070039000541b100c6
:100bb0000982cf00040039000541b1000882cf004e
:100bc000010039000541b100054252001200320017
:100bd0000a003b0082817100610164008100d10044
:100be0000080d3008984d3000884d3008b05e800fb
:100bf0000442e800f7ff3a00070037000804440009
:100c000089844c0000004800818048008b05e90081
:100c10000442e900f9ff3a0022ff07004f05be0039
:100c20004f04be000000060006c2b30000027800b8
:100c300004007800b042780086cf5200fbff3200fb
:100c4000e9cf5200f9ff3200d6c2b30086cf52007e
:100c500003003a000002780016c0b3000500370018
:100c60000043eb00b7c2b30087cf520001003a0047
:100c7000000278000000eb00020037006a00b900b3
:100c800000804200b402fb000503b100e98f52006e
:100c9000faff3600e04f5300010032000000ea0086
:100ca00000000600800178008103780007027800c8
:100cb0000100370085017800110009000282d80088
:100cc000000278008302e800e00f5200f9ff3a00ca
:100cd000844a7800110009008283d80080027800dd
:100ce0000142780085037800e94f5200010034008a
:100cf0006742420001c3b30081514200e08f5200bd
:100d0000f4ff3a000300780000000600881f780016
:100d100000047800e08f500005003d0008007800d6
:100d2000d4c2b300045878008100ea000100370003
:100d300008007800dbff0700080078004f04780007
:100d400000000600000278008042eb00b4cf1200e1
:100d5000fdff3a000080ea000000420000000600ab
:020000040000fa
:100d600064610000746f000073200000656e000075
:100d7000636f00006e74000072610000646f000019
:100d800073200000656e0000206c000061200000f0
:100d900065650000707200006f6d00000064000067
:100da000617400006f730000206e00006f2000006f
:100db000206500006e6300006f6e0000747200001a
:100dc000616400006f730000206500006e20000069
:100dd0006c6100002065000065700000726f00000b
:100de0006d2c00002063000061720000676100004c
:100df0006e6400006f20000064610000746f0000ea
:100e0000732000007365000067750000726f0000ba
:100e1000730000004b5000003d000000202c00003b
:100e2000204b0000443d0000002000002c2000006a
:100e30004b4900003d000000202c00002042000033
:100e400049410000533100003d000000202c00000b
:100e50002042000049410000533200003d000000e4
:100e60006b3d0000005100005f6100006e670000f4
:100e70006c6500003d000000202c000020510000a7
:100e80005f62000069610000733d00000020000007
:100e90002c200000525f00006d65000061730000af
:100ea00075720000653d0000005400007361000091
:100eb0006d7000006c6500003d000000202c0000fb
:100ec00020660000696c0000747200006f3d000035
:100ed00000660000696c0000747200006f20000062
:100ee0004b6100006c6d0000616e00000066000048
:100ef000696c0000747200006f200000636f0000d6
:100f00006d7000006c6500006d6500006e7400007f
:100f100061720000696f0000000000005361000072
:100f20006c6700006f20000064650000204d000029
:100f3000795300007461000072740000207000009a
:100f40006f72000020540000696d0000657200009f
:100f500000530000616c0000676f00002064000017
:100f6000652000004d790000526500007374000098
:100f70006172000074200000706f00007220000099
:100f8000546900006d6500007200000053610000ac
:100f90006c6700006f20000064650000206d000099
:100fa000795f0000537400006f7000002070000033
:100fb0006f72000020540000696d0000657200002f
:100fc00000530000616c0000676f000020640000a7
:100fd000652000006d7900005f5700007269000015
:100fe00074650000207000006f7200002054000043
:100ff000696d00006572000000530000616c000024
:10100000676f000020640000652000006d7900001b
:101010005f490000646c000065200000706f0000f4
:1010200072200000546900006d650000720000002d
:10103000536100006c6700006f20000064650000d1
:10104000206d0000795f00006d6100007374000086
:10105000657200007265000063650000697600003b
:101060006549000032430000207000006f720000ec
:1010700020540000696d000065720000000000004f
:10108000466900006e2000006465000020700000ca
:10109000726f000063650000736100007220000041
:1010a00063610000646500006e6100002050000074
:1010b000494400002a2a00002a2a00002a2a0000a7
:1010c0002a2a00002a2a00002a2a00002a2a0000d0
:1010d0002a2a0000005200006563000069620000d7
:1010e000696400006f200000706100007261000000
:1010f000722000006d6f0000746f000072650000c8
:10110000730000005265000063690000626900001e
:10111000646f00002061000072720000616e0000c8
:1011200063610000722000006d6f0000746f0000aa
:1011300072650000730000005265000063690000e2
:1011400062690000646f0000206d00006f640000a1
:10115000696600006963000061630000696f000058
:101160006e200000646500002070000061720000c5
:10117000616d000065740000726f00007300000074
:10118000436100006d62000069610000646f00004f
:101190002073000065740000706f0000696e00002d
:1011a000742e0000004300006f6d0000616e0000af
:1011b000646f0000206e00006f2000007265000068
:1011c000636f00006e6f000063690000646f0000d1
:1011d0002e0000002d2d00002d2d00002d2d0000d3
:1011e0002d2d00002d2d00002d2d00002d2d000097
:1011f0002d2d00002d2d00002d2d00002d2d000087
:101200002d2d00002d2d00002d2d00002d2d000076
:101210002d2d00002d2d00002d2d00002d2d000066
:101220002d2d00002d2d00002d2d00002d2d000056
:101230002d2d00002d2d00002d2d00002d2d000046
:1012400000610000783d00002000000020610000e7
:10125000792000003d20000000200000677a000097
:101260003d20000000200000776800006f20000093
:081270003d2000000000000019
:020000040000fa
:101278000000fa00d4002000d4108800000000000c
:10128800c51080000410200004826200e00f5200a4
:10129800fbff3200a4002000d410880000000000ea
:1012a800c51080000410200004826200e00f520084
:1012b800fbff32000080fa00000006000600fa007a
:1012c80010079800210798000042eb00044f7800af
:1012d8000e0037009e4278000582fb009e029000b7
:1012e80004824200144278000402fb00d4108800f3
:1012f80000000000c5108000041020000482620075
:10130800e00f5200fbff32001e4fe8001e4278003b
:101318008482fb002e029000848f5200edff35007e
:101328000080fa00000006000400fa00000f7800b0
:10133800110798009e0090001e007800dfff07004c
:10134800cbff07000080fa00000006000600fa0044
:1013580010079800210798000042eb00044f78001e
:101368000e0037009e4278000582fb009e02900026
:1013780004824200144278000482fb00d4108800e2
:1013880000000000c51080000410200004826200e4
:10139800e00f5200fbff32001e4fe8001e427800ab
:1013a8008482fb002e029000848f5200edff3500ee
:1013b8000080fa00000006000400fa00000f780020
:1013c800110798009e0090001e007800dfff0700bc
:1013d800a7ff07000080fa00000006000400fa00da
:1013e800000f7800110798001e00780053fe0700d0
:1013f80000027800840078001e007800afff070024
:10140800a20020009e009000808120003dfe070081
:101418008081200049fe07000002780084007800df
:1014280080812000c0ff07000080fa00000006004d
:101438000400fa00000f7800110798001e007800d9
:101448003efe070000027800840078001e00780045
:101458009aff0700a20020009e00900080812000d3
:1014680028fe07008081200034fe07000002780073
:10147800840078008081200090ff07000080fa0037
:10148800000006000200fa00000f78001e00780035
:101498002afe070000027800840078001e00780009
:1014a800a1ff07000080fa00000006000200fa0011
:1014b800000f78001e00780020fe07000002780068
:1014c800840078001e0078007cff07000080fa0086
:1014d800000006003600f800809fbe00829fbe0014
:1014e800849fbe00869fbe000200fa00d40a07004f
:1014f800d6488000e410800004427800a58c2000c3
:1015080085024300844a7800d548800004032000ff
:10151800848f520003003c00d44880000402e80095
:10152800d4488800d44880008402e900a48c2000b4
:10153800048242009442780034c2b30084cf52003f
:1015480015003a00d44880000402e900d448880015
:10155800a08c20001a0007000002eb00040f78009e
:1015680005003700a48c20009e0242000042eb00d8
:10157800844a78001e0fe800140320009e027800b9
:10158800848f5200f7ff34000002eb00d448880033
:1015980000842800bbff07008700a9001822a900c3
:1015a800a30a07000080fa004f03be004f02be00e6
:1015b8004f01be004f00be003600f9000040060093
:1015c8008c00fa00508798000002eb00040f7800a6
:1015d8000002eb00140798000002eb0024079800b3
:1015e8006802470004000900001aeb007202470075
:1015f80004000900001aeb007c02470004000900ff
:10160800001aeb000e0278006402b0000400090022
:10161800001aeb000e0278000403b0000400090071
:10162800001aeb000e027800a403b00004000900c1
:10163800001aeb000e0278004404b0000400090010
:10164800001aeb000e027800e404b0000400090060
:10165800001aeb000e0278008405b00004000900af
:10166800001aeb000e0278002406b00004000900fe
:10167800001aeb000e027800c406b000040009004e
:10168800001aeb000e0278006407b000040009009d
:10169800001aeb000e0278000408b00004000900ec
:1016a800001aeb001e027800e00f5200a900340077
:1016b8001e027800de829000048242009442780084
:1016c800c4c2b30084cf52009d0032002e029000a5
:1016d800e00f520008003a001e027800de829000f7
:1016e8000482420014427800680347009e0290007a
:1016f80085024300844a78002e029000e10f5200d0
:1017080008003a001e027800de829000048242003f
:1017180014427800720347009e029000850243003d
:10172800844a78002e029000e20f520008003a0026
:101738001e027800de829000048242001442780083
:101748007c0347009e02900085024300844a78008b
:101758002e029000e30f520009003a001e027800a2
:10176800de82900004824200144278006602200063
:101778000e0343009e02900085024300844a7800cd
:101788002e029000e40f520009003a001e02780071
:10179800de82900004824200144278000603200092
:1017a8000e0343009e02900085024300844a78009d
:1017b8002e029000e50f520009003a001e02780040
:1017c800de8290000482420014427800a6032000c2
:1017d8000e0343009e02900085024300844a78006d
:1017e8002e029000e60f520009003a001e0278000f
:1017f800de829000048242001442780046042000f1
:101808000e0343009e02900085024300844a78003c
:101818002e029000e70f520009003a001e027800dd
:10182800de8290000482420014427800e604200020
:101838000e0343009e02900085024300844a78000c
:101848002e029000e80f520009003a001e027800ac
:10185800de8290000482420014427800860520004f
:101868000e0343009e02900085024300844a7800dc
:101878002e029000e90f520009003a001e0278007b
:10188800de8290000482420014427800260620007e
:101898000e0343009e02900085024300844a7800ac
:1018a8002e029000ea0f520009003a001e0278004a
:1018b800de8290000482420014427800c6062000ae
:1018c8000e0343009e02900085024300844a78007c
:1018d8002e029000eb0f520009003a001e02780019
:1018e800de829000048242001442780066072000dd
:1018f8000e0343009e02900085024300844a78004c
:101908002e029000ec0f520009003a001e027800e7
:10191800de8290000482420014427800060820000b
:101928000e0343009e02900085024300844a78001b
:101938001e0290000402e800140798000500370012
:101948002e0290000402e800240798000002eb0031
:10195800140798001e0fe8001e027800de8290002f
:10196800048242009442780034c2b30084cf52000b
:101978004cff3a006802470004007800a8fc070002
:1019880000027800340798003e0290006123b900f5
:101998000082eb008082eb000602420087824a0048
:1019a8003600200007002000860f5200878f5a005b
:1019b8007c003e0004600100030037000700370088
:1019c8000b0037006f003700b0862800adfe070017
:1019d8000002eb00a4438800750037002088280027
:1019e800a8fe070014002000a443880070003700f8
:1019f800c0892800a3fe070072024700040078008f
:101a080087fc07000002780084007800200020008e
:101a1800400a07007c0247000400780080fc0700a9
:101a2800000278008400780040002000390a07008e
:101a3800640220000e0242000400780078fc0700cf
:101a4800000278008400780060002000310a070056
:101a5800040320000e0242000400780070fc070016
:101a6800000278008400780080002000290a07001e
:101a7800a40320000e0242000400780068fc07005e
:101a88000002780084007800a0002000210a0700e6
:101a9800440420000e0242000400780060fc0700a5
:101aa8000002780084007800c0002000190a0700ae
:101ab800e40420000e0242000400780058fc0700ed
:101ac8000002780084007800e0002000110a070076
:101ad800840520000e0242000400780050fc070034
:101ae800000278008400780000012000090a07003d
:101af800240620000e0242000400780048fc07007b
:101b0800000278008400780020012000010a070004
:101b1800c40620000e0242000400780040fc0700c2
:101b2800000278008400780040012000f9090700cd
:101b3800640720000e0242000400780038fc070009
:101b4800000278008400780060012000f109070095
:101b5800040820000e0242000400780030fc070050
:101b6800000278008400780080012000e90907005d
:101b780091b321000000eb00e60907000000fe0019
:101b88000b003700720247000400780024fc0700ad
:101b98000002780004448800008c280039fe070001
:101ba80003003700308d280036fe070000000000d3
:101bb8000080fa00000006000600fa0010079800ee
:101bc800210798000042eb00044f780024003700fa
:101bd8009e4278000582fb00040242009e029000ab
:101be80004824200140278000442780014479800e6
:101bf8001e4290000402fb00d41088000000000080
:101c0800c51080000410200004826200e00f52001a
:101c1800fbff32009e4278000582fb00040242006e
:101c28009e029000048242001402780048a2de005e
:101c380004427800144798001e4290000402fb00fa
:101c4800d410880000000000c51080000410200097
:101c580004826200e00f5200fbff32001e4fe800d2
:101c68001e4278008482fb002e0290000482d1007c
:101c7800848f5200d6ff35000080fa00000006006d
:101c88000a00fa0040079800b4da2c0014079800fc
:101c980044002000240798004e0290003407980062
:101ca80064002000040f78000e82e8009e0078008f
:101cb8000400780081fd07000080fa00000006009b
:101cc8000e00fa005007980061079800b4da2c005b
:101cd8001407980044002000240798005e02900032
:101ce800340798006e029000440798008400200092
:101cf800040f78000e82e8009e0078000400780047
:101d08006efd07000080fa00000006001200fa00cd
:101d18006007980071079800020f9800b4da2c0049
:101d28001407980064002000240798006e029000b1
:101d3800340798007e029000440798000e0a90002d
:101d480054079800a4002000040f78000e82e800d1
:101d58009e0078000400780058fd07000080fa0013
:101d6800000006001600fa0070079800010f98009e
:101d7800120f9800230f9800b4da2c00140798006b
:101d880084002000240798007e0290003407980001
:101d98000e0a9000440798001e0a90005407980005
:101da8002e0a900064079800c4002000040f7800f1
:101db8000e82e8009e007800040078003ffd0700ce
:101dc8000080fa00000006000200fa00004f7800c8
:101dd8009e4278000582fb00141088000000000075
:101de8004410800061026200e00f5200fcff3a00dc
:101df8000080fa00000006000000fa00040220003b
:101e08000409880004572000e40888000002eb0059
:101e1800c408880086c0a90021e1a9008ec0a900d5
:101e280021e1a8000080fa00000006000000fa0086
:101e38000602a800f0ff070086c0a9000000000005
:101e48003410800061026200e00f52000500320089
:101e5800350480000404200004826200e00f520070
:101e6800f7ff320021e1a9003504800004042000b6
:101e780004826200e00f520002003200e07828007d
:101e880080fd07000002eb00040078000080fa00e3
:101e9800000006000000fa000622a800d6ff07008e
:101ea80086c0a900000000003410800062026200b1
:101eb800e00f5200050032003504800004042000c1
:101ec80004826200e00f5200f7ff320021e1a9000e
:101ed800350480000404200004826200e00f5200f0
:101ee80002003200907a280066fd07000002eb002d
:101ef800040078000080fa00000006000000fa00e4
:101f08000642a800bcff070086c0a9000000000028
:101f18003410800064026200e00f520005003200b5
:101f2800350480000404200004826200e00f52009f
:101f3800f7ff320021e1a9003504800004042000e5
:101f480004826200e00f520002003200607c280028
:101f58004cfd07000002eb00040078000080fa0046
:101f6800000006000200fa00004f78009e42780048
:101f78000582fb00141088009fff070086c0a90097
:101f8800000000004410800061026200e00f52006f
:101f98000500320035048000040420000482620039
:101fa800e00f5200f7ff320021e1a900350480005c
:101fb8000404200004826200e00f52000200320094
:101fc800107e28002ffd07000002eb0004007800b7
:101fd8000080fa00000006000000fa0086ff0700f3
:101fe80086c0a900000000004510800004002400fd
:101ff80004826200e00f52000500320035048000c0
:102008000404200004826200e00f5200f6ff320050
:1020180021e1a90035048000040420000482620044
:10202800e00f520002003200d07f280015fd0700a3
:102038000002eb00040078000080fa0000000600af
:102048000000fa00441080000482ea004f22de00fb
:10205800040078000080fa00000006000000fa0082
:1020680006a2a8000682a800000000003410800024
:1020780070026200e00f5200fcff3a0006a2a900bd
:102088000002eb00040078000080fa00000006005f
:102098000000fa0006a2a9000682a80000000000bd
:1020a8003410800070026200e00f5200fcff3a001a
:1020b8000002eb00040078000080fa00000006002f
:1020c8000000fa000662a80000000000441080002a
:1020d80062026200e00f5200fcff32000410800030
:1020e800040078000080fa00000006000000fa00f2
:1020f80041ff070086c0a9000662a8001000200062
:10210800ac0707000000000034108000680262007d
:10211800e00f52000500320035048000040420005e
:1021280004826200e00f5200f7ff320021e1a900ab
:10213800350480000404200004826200e00f52008d
:102148000200320080812800cefc07001400200025
:10215800040078000080fa00000006000400fa007d
:10216800000f78002147980011003700d4ff0700be
:1021780000027800044278009e027800844a7800c1
:102188001e0fe80045108000044020000482620011
:10219800e00f5200020032000082eb000f0037000f
:1021a8002e429000e04f520001003200b8ff0700b5
:1021b8002e4290000482fb000402ea004f22de0057
:1021c80004427800ae4290008542e9002547980015
:1021d800e04f5200e5ff3a000002eb0004007800ef
:1021e8000080fa00000006000200fa00004f7800a4
:1021f80079ff07000dff070000cdb30059ff070066
:1022080075ff07001e40780056ff070072ff0700a1
:1022180020ff070010cdb30052ff07006eff070034
:10222800b2ff07008dff070034ff0700041080008d
:10223800040078000080fa00000006000200fa009e
:10224800004f780011479800f8fe070000cdb30052
:1022580044ff070060ff07001e40780041ff0700a9
:102268005dff07001e4090003eff07005aff070071
:1022780022ff07000080fa00000006000000fa00b4
:10228800f1c0b30090c1b300ecff070011c0b30068
:10229800b0c6b300e9ff07008040eb00b0c1b3004f
:1022a800e6ff07008040eb00c0c1b300e3ff070072
:1022b80014448000254480000400be0051f9070042
:1022c8000002be00040278000442780084407800ce
:1022d800a0c1b300d9ff07000080fa000000060083
:1022e8000600fa00889fbe00100798002107980092
:1022f8001e009000250707000002eb00040f78007d
:1023080055003700a900070000027800cfa2de00c0
:102318000400be005cf907000003be00f44580001d
:10232800054680000401be000600be0010f8070044
:102338000002be0094458800a5458800ae0007004d
:1023480000027800cfa2de000400be004ef90700ac
:102358000003be0014468000254680000401be002c
:102368000600be0002f807000002be00b44588005f
:10237800c5458800b300070000027800cfa2de0040
:102388000400be0040f907000003be003446800088
:10239800454680000401be000600be00f4f70700b1
:1023a8000002be00d4458800e5458800b800070053
:1023b80000027800cfa2de000400be0032f9070058
:1023c8000003be00f4458000054680000401be00fd
:1023d8000600be00e6f707000002be00f4458800cc
:1023e80005468800bd00070000027800cfa2de0085
:1023f8000400be0024f907000003be001446800054
:10240800254680000401be000600be00d8f707007c
:102418000002be001446880025468800c200070056
:1024280000027800cfa2de000400be0016f9070003
:102438000003be0034468000454680000401be000b
:102448000600be00caf707000002be003446880036
:10245800454688001e0fe8002e0290009e02780074
:10246800848f5200a7ff350098458000a945800059
:102478002e029000cfa2de000400be0002f9070081
:102488000002be000401be000800be0097f8070065
:102498000002be0094458800a5458800b845800024
:1024a800c94580002e029000cfa2de000400be00c5
:1024b800f5f807000002be000401be000800be00d7
:1024c8008af807000002be00b4458800c5458800a8
:1024d800d8458000e94580002e029000cfa2de009a
:1024e8000400be00e8f807000002be000401be00b8
:1024f8000800be007df807000002be00d445880031
:10250800e5458800f8458000094680002e029000c5
:10251800cfa2de000400be00dbf807000002be0008
:102528000401be000800be0070f807000002be00eb
:10253800f445880005468800184680002946800032
:102548002e029000cfa2de000400be00cef80700e5
:102558000002be000401be000800be0063f80700c8
:102568000002be00144688002546880038468000d0
:10257800494680002e029000cfa2de000400be0073
:10258800c1f807000002be000401be000800be003a
:1025980056f807000002be00344688004546880009
:1025a8004f04be000080fa00000006000400fa0094
:1025b8000002eb00040f78000002eb0014079800fb
:1025c800b0c3b30008ff07000002780014079800a2
:1025d800c0c3b30004ff070000027800040f7800ae
:1025e8001e0290004822dd001e024200040078000e
:1025f8000080fa00000006000400fa000002eb0068
:10260800040f78000002eb0014079800d0c3b30051
:10261800f5fe07000002780014079800e0c3b30035
:10262800f1fe070000027800040f78001e029000f7
:102638004822dd001e024200040078000080fa00f3
:10264800000006000400fa000002eb00040f780006
:102658000002eb0014079800f0c3b300e2fe070085
:10266800000278001407980000c4b300defe0700db
:1026780000027800040f78001e0290004822dd0056
:102688001e024200040078000080fa0000000600e4
:102698000400fa000002eb00040f78000002eb00cf
:1026a8001407980030c4b300cffe0700000278007a
:1026b8001407980040c4b300cbfe0700000278005e
:1026c800040f78001e0290004822dd001e0242001e
:1026d800040078000080fa00000006000400fa00f8
:1026e8000002eb00040f78000002eb0014079800ca
:1026f80050c4b300bcfe070000027800140798001d
:1027080060c4b300b8fe070000027800040f780028
:102718001e0290004822dd001e02420004007800dc
:102728000080fa00000006000400fa000002eb0036
:10273800040f78000002eb001407980070c4b3007f
:10274800a9fe0700000278001407980080c4b300af
:10275800a5fe070000027800040f78001e02900012
:102768004822dd001e024200040078000080fa00c2
:10277800000006000400fa000002eb00040f7800d5
:102788000002eb001407980010c4b30096fe07007f
:10279800000278001407980020c4b30092fe0700d6
:1027a80000027800040f78001e0290004822dd0025
:1027b8001e024200040078000080fa0000000600b3
:1027c8000000fa0050c7b30087fe07000002780037
:1027d800040078000080fa00000006000c00fa00ef
:1027e800000f780011079800220798003307980017
:1027f80044079800550798006cff0700000278000e
:102808009e027800840a78007bff070000027800a7
:102818009e029000840a78008aff07000002780070
:10282800ae029000840a780099ff07000002780041
:10283800be029000840a7800a8ff07000002780012
:10284800ce029000840a7800b7ff070000027800e3
:10285800de029000840a78000080fa00000006007a
:102868000000fa000002eb00243a8800a0002000d3
:10287800d00507000082eb0044158800a000200066
:10288800cc0507000082eb0004168800a000200099
:10289800c805070024fc2f0034168800a00020007b
:1028a800c40507000082eb0064168800a000200021
:1028b800c005070004ff2f0094168800a000200020
:1028c800bc0507000082eb00f4168800a000200079
:1028d800b80507000002eb0014168800a0002000cd
:1028e800b40507000002eb0044168800a000200091
:1028f800b00507000002eb0074168800a000200055
:10290800ac0507000002eb00a4168800a000200018
:10291800a80507000002eb0004178800a0002000ab
:10292800a40507000080fa00000006000000fa0075
:1029380000352c009f0507000040eb0065050700e7
:10294800b41120002410880007a2a900000000008c
:102958000782a800000000000762a900000000002c
:102968000742a900000000000722a900000000009b
:102978000702a9000000000006e2a900000000000c
:1029880006c2a9000000000006a2a900000000007d
:102998000682a900000000000662a90000000000ed
:1029a8000642a900000000000622a900000000005d
:1029b8000602a900000000000040eb0045050700e2
:1029c80007e2a8000080fa00000006000400fa00f0
:1029d8008401a900000000008421a9000000000073
:1029e8008441a900000000008461a90000000000e3
:1029f8008a01a900000000008a21a9000000000047
:102a08008a41a900000000008a61a90000000000b6
:102a18009001a900000000009021a900000000001a
:102a28009041a900000000009061a900000000008a
:102a38009601a900000000009621a90000000000ee
:102a48009641a900000000009661a900000000005e
:102a580011e1a9000000000011a1a9000000000078
:102a680010c1a900000000001021a900000000000a
:102a78001061a9000000000084c0a9000000000047
:102a880054392100040f78000002eb001407980065
:102a98001e027800140888001e029000040c8800aa
:102aa8001e027800640888001e029000340c88001a
:102ab8001e027800740888001e029000640c8800ca
:102ac8001e027800d40888001e029000940c88002a
:102ad8008401a900000000008421a8000000000073
:102ae8008441a800000000008a01a900000000003d
:102af8008a21a800000000008a41a8000000000008
:102b08009001a900000000009021a800000000002a
:102b18009041a800000000009601a90000000000f4
:102b28009621a800000000009641a80000000000bf
:102b3800840880000440a1000450a1008408880093
:102b4800000000000002eb00040c88000002eb000b
:102b5800340c88000002eb00640c88000002eb00d3
:102b6800940c880011e1a8000080fa00000006001b
:102b78000000fa0017e2a8000000000000000000b2
:102b88000000000019e2a90000000000c410800045
:102b98000460a1000470a100c410880000000000b7
:102ba800b41080000410a1000420a100b410880013
:102bb800000000001602a9000000000016a2a900eb
:102bc80000000000f4002000f41088001942a8005a
:102bd800000000008700a900000000008720a9006d
:102be800000000008f00a800000000008f20a9004e
:102bf800000000000080fa00000006000000fa0053
:102c0800f404800004c0a00004d0a00004e0a000e8
:102c1800f40488008240a90086e0a9008ee0a8009c
:102c2800a40480000400a0000410a0000420a00058
:102c3800a40488008200a9008400a9008c00a800d0
:102c48000080fa00000006000000fa00ca02a8008e
:102c5800ca42a800ca62a800ca82a800caa2a800dc
:102c68000080fa00000006000000fa00ca02a9006d
:102c7800ca42a900ca62a900ca82a900caa2a900b8
:102c88000080fa00000006001000fa0070079800a3
:102c9800143a8000040f7800f48f2f001e0f620092
:102ca8001e02780048a2de00040f78007e02900021
:102cb800050020007600200007002000860f520043
:102cc800878f5a0068003e00046001000700370043
:102cd8000b0037000f00370013003700640037007f
:102ce8006300370062003700140037009e02780046
:102cf8007e02900004827200040f780014003700ee
:102d08009e0278007e02900004827200040f780010
:102d18000f0037009e0278007e0290000482720045
:102d2800040f78000a0037009e0278007e029000a7
:102d380004827200040f7800050037009e027800b4
:102d48007e02900004827200040f780000000000e8
:102d580084c7b30024479800a4c9b3003447980037
:102d6800247420000402e80024079800140280005c
:102d78004522de00674262000482fb0034079800a7
:102d88009402800044079800ff3ffc001402800072
:102d98000450a0000460a0000470a0001402880081
:102da8004e02900094028800000088002e039000d4
:102db8002e429000be4290009e037800044b78009b
:102dc800054b7800074b780064c4b300244798008b
:102dd80074c5b30034479800247420002407980071
:102de800143a8000044278000404a000244f98009c
:102df800ae0390002e429000be4290002e4b9000f1
:102e0800844b7800854b7800864b780000000000e2
:102e1800143a800061026200e00f5200fcff3a00a1
:102e28009402800064079800ff3ffc003e02900077
:102e380004427800674262000482fb006702620075
:102e48004522dd0016028000f5f12f00850263009f
:102e580004827200140288006e02900094028800b6
:102e68000000880003003700000000000100370060
:102e7800000000000080fa00000006000200fa00ce
:102e88000002eb00040f7800010037001e0fe80075
:102e9800140320009e027800848f5200fbff340048
:102ea8000040eb000b0407007000200076ff0700cd
:102eb800c05d20003f0407000080fa000000060003
:102ec8000000fa006022b80004408800154088001d
:102ed8006022b80024408800354088006022b8008d
:102ee80044408800554088006022b800644088004b
:102ef80075408800f4282c0055cf230044448800ee
:102f080055448800f426210035a82300644488002d
:102f180075448800f426210035b0230084448800d5
:102f2800954488000400200005f82300a444880084
:102f3800b54488006022b800c4448800d54488009d
:102f48006022b800e4448800f54488000681200027
:102f58006022b8004403980055039800040020003c
:102f680005f8230004458800154588000400200062
:102f7800852c240024458800354588000080fa0007
:102f8800000006000c00fa00889fbe00008fbe00fb
:102f980022079800330798004407980055079800bf
:102fa800c4448000d54480000401be002e00900077
:102fb800be009000edf407000002be00e444880063
:102fc800f5448800e4448000f54480004e019000f8
:102fd800de0190000400be0083f607000002be0078
:102fe8000403be00a4448000b54480000401be0070
:102ff8000600be00def407000002be00a4448800fc
:10300800b544880008408000194080006440800072
:10301800754080004e019000de0190000400be0063
:1030280071f607000002be000403be0024408000c1
:10303800354080000401be000600be00cbf4070046
:103048000002be000403be004440800055408000da
:103058000401be000600be00c4f407000002be0062
:103068000403be0044448000554480000401be00af
:103078000600be00bef407000002be004e0190002c
:10308800de0190000400be0057f607000002be00f3
:103098000401be000800be00b5f407000002be002f
:1030a800044088001540880028408000394080008e
:1030b80064408000754080004e019000de01900061
:1030c8000400be0048f607000002be000401be006e
:1030d8000800be00a5f407000002be0024408800d6
:1030e8003540880048408000594080006440800096
:1030f800754080004e019000de0190000400be0083
:1031080039f607000002be000401be000800be0038
:1031180096f407000002be0044408800554088002d
:1031280068408000794080006444800075448000d5
:103138004e019000de0190000400be002af6070050
:103148000002be000401be000800be0088f40700ab
:103158000002be0064408800754088000640800078
:103168001740800084448000954480000401be001c
:103178000600be007ef407000002be002445880059
:1031880035458800064080001740800024458000af
:10319800354580000401be000600be0053f5070057
:1031a8000002be0006812000048bbe00464080005d
:1031b8005740800024458000354580000401be004a
:1031c8000600be0049f507000002be000681200087
:1031d8002403980035039800a4448000b544800077
:1031e8000401be001e00be0060f407000002be001d
:1031f8000445880015458800048120001403be009a
:1032080004458000154580000401be000600be008c
:10321800f5f507000002be000403be00a4448000c8
:10322800b54480000401be000600be0050f407004b
:103238000002be00a4448800b54488000481200030
:1032480024039000b40390000445800015458000d5
:103258000401be000600be00e3f507000002be0040
:103268000403be00c4448000d54480000401be00ad
:103278000600be003ef407000002be00c4448800f9
:10328800d54488000840800019408000048120004f
:103298001403be0004408000154080000401be00f5
:1032a8000600be00d0f507000002be000401be0003
:1032b8000800be002df407000002be00044088008c
:1032c8001540880028408000394080000481200093
:1032d8001403be0024408000354080000401be0075
:1032e8000600be00c0f507000002be000401be00d3
:1032f8000800be001df407000002be00244088003c
:1033080035408800484080005940800004812000f2
:1033180024039000b403900004408000154080000e
:103328000401be000600be00aff507000002be00a3
:103338000401be000800be000cf407000002be0035
:1033480044408800554088006840800079408000eb
:103358000481200024039000b403900024408000de
:10336800354080000401be000600be009ef507003f
:103378000002be000401be000800be00fbf3070007
:103388000002be006440880075408800a4448000a4
:10339800b54480000400be004f04be000080fa005f
:1033a800000006000000fa002dfd07000040eb00b9
:1033b800c8020700b1fe07000040eb00c502070085
:1033c80082fd07000040eb00c20207000bfe070069
:1033d8000040eb00bf020700e5fd07000040eb00de
:1033e800bc020700ec00070050fd07000040eb009e
:1033f800b8020700a1fb07000040eb00b502070078
:10340800affe07000040eb00b20207009bfb07007d
:103418000040eb00af0207000bfe07000002eb00c4
:103428008445880005003700007d2000e102070080
:10343800844580000402e8008445880085458000b2
:10344800349c2000848f5200f7ff340006fe0700ea
:1034580005fe070004fe07004443800004007800ce
:10346800de020700090307001a030700f00207003d
:10347800a08e280003f80700ffff37000e00fa00af
:10348800889fbe008a9fbe000002eb00040f7800f0
:103498000002eb00140798000002eb0024079800d4
:1034a80055fc0700000278000402ea00cfa2de0003
:1034b8000400be00f4f407000004be003bfc070053
:1034c80000027800cfa2de000400be00eef4070080
:1034d8000002be000801be000400be0001f407009f
:1034e8000002be0012ee2200532624000400be0093
:1034f8003df507000002be00340798004507980014
:1035080089fc070000027800cfa2de000400be009c
:10351800ddf407000002be00020020003330240062
:103528000400be0071f407000002be0054079800b2
:103538006507980034448000e10f52000e003a00fd
:10354800444380005e019000ee0190003e00900030
:10355800ce009000ff0207000002be000400be007b
:10356800a8f407000002be0004027800a405b10018
:10357800140798001100370044438000cfa2de00f2
:103588000400be00c0f407000002be005e01900007
:10359800ee0190003e009000ce00900079fe0700fa
:1035a8000002be000400be0096f407000002be0040
:1035b80004027800a405b10014079800a443800011
:1035c800e10f520044003a0064438000cfa2de00bd
:1035d8000400be00acf407000005be007443800080
:1035e800cfa2de000400be00a7f407000004be005e
:1035f80054438000cfa2de000400be00a2f40700fe
:103608000002be0000448000068f2d00861f78004f
:1036180006712200861f780086c72e00861f780054
:103628008a9fbe00833821000803be005200200094
:103638009e0090004c010700ea87570000027800be
:10364800040f7800844380001e02520004007800b2
:1036580077030700944380001e02420004007800ac
:103668007f03070056fc0700000278002407980033
:10367800ae02900084062000848f520001003200c0
:10368800aafc0700c9fb0700000278008400780044
:103698001092280066f70700d7fb070000027800a1
:1036a800840078006092280061f707001efc07007c
:1036b8000002780084007800d092280047f70700bd
:1036c8003ffc07000002780084007800309328004f
:1036d80057f70700070037000000eb005403070006
:1036e8000000eb005e0307006022b800e443880096
:1036f800f5438800094480009e027800a400200059
:10370800110009008402d80000027800040478003f
:1037180002002000432b24003e009000ce009000c1
:1037280012f307000002be000400be0035f40700d3
:103738000002be00040278008901780008017800c0
:103748009e0090000400780086f907005416800057
:103758007002620004f0a7000402ea000402e90013
:103768004f22de00044278000482fb0061026200fe
:103778004422dd0056168000f5fe2f008502630006
:1037880004827200541688004f05be004f04be0024
:103798000080fa00000006000000fa000000eb00bc
:1037a8000f0307000002780095b32100850f52002f
:1037b80067003a00006b280032f70700200020005d
:1037c8000703070000027800a50020001100090087
:1037d8000582d80000027800544388004000200089
:1037e800ff02070000027800a50020001100090070
:1037f8000582d80000027800744388006000200029
:10380800f702070000027800a50020001100090057
:103818000582d800000278006443880080002000f8
:10382800ef0207000002780084438800a00020000f
:10383800eb0207000002780094438800c0002000d3
:10384800e702070000027800050020000400be001f
:1038580010f407000002be00444588005545880062
:10386800e0002000de0207000002780005002000ca
:103878000400be0007f407000002be00020020009a
:10388800a34724000400be0098f307000002be000e
:10389800444488005544880000012000d0020700f5
:1038a80000027800050020000400be00f9f30700bc
:1038b8000002be0002002000a34724000400be004e
:1038c8008af307000002be0064448800754488003b
:1038d80020012000c2020700000278000500200035
:1038e8000400be00ebf307000002be000200200047
:1038f800a34724000400be007cf307000002be00ba
:10390800844488009544880040012000b4020700e0
:10391800000278004443880060012000b0020700dc
:1039280000027800050020000400be00d9f307005b
:103938000002be001444880025448800800120004d
:10394800a7020700000278003444880022003700ec
:10395800f06c2800cbf60700a40020005443880030
:1039680084022000644388000002eb00744388004e
:10397800843e200084438800843e200094438800cd
:1039880004002000c52024004445880055458800cf
:103998000400200005f823004444880055448800aa
:1039a8000400200005f8230064448800754488005a
:1039b8000400200005f8230084448800954488000a
:1039c800540020004443880004002000050c240013
:1039d8001444880025448800544380006a22b900b2
:1039e8000402780084007800a070280090f6070090
:1039f800644380006a22b9000402780084007800d9
:103a0800e07028008af60700744380006a22b90033
:103a180004027800840078005071280084f60700ba
:103a28008443800084007800c071280080f6070075
:103a380094438000840078006072280067f60700cd
:103a480044458000554580000400be006df3070022
:103a58000002be0004027800840078000073280089
:103a68005ef60700444480005544800002002000b0
:103a7800a34724000400be00dbf307000002be00d9
:103a88000400be005ff307000002be0004027800d5
:103a9800840078003073280065f6070064448000cd
:103aa8007544800002002000a34724000400be00e3
:103ab800cdf307000002be000400be0051f307006a
:103ac8000002be000402780084007800c073280059
:103ad80057f60700844480009544800002002000c7
:103ae800a34724000400be00bff307000002be0085
:103af8000400be0043f307000002be000402780081
:103b0800840078007074280034f60700444380006d
:103b1800840078005075280045f60700144480009a
:103b2800254480000400be0036f307000002be00f2
:103b38000402780084007800e075280027f6070062
:103b480034448000e10f520003003a0090762800c8
:103b58004cf60700020037007077280049f6070086
:103b68000080fa00000006002600fa00889fbe00c8
:103b7800300f9800410f9800520f9800640f98007a
:103b8800750f9800061798001717980023179800c4
:103b9800be0a90004e0a9000048252002407980042
:103ba8002e029000cfa2de000400be0036f307000c
:103bb8000003be00c4438000d54380000401be005a
:103bc8000600be00e9f107000002be0034079800b5
:103bd800450798002e029000cfa2de000400be0028
:103be80029f307000002be006e099000fe0990004c
:103bf8000400be007cf307000002be0054079800d2
:103c0800650798002e029000cfa2de000400be00d7
:103c18001df307000002be000e1190009e119000d7
:103c28000400be0070f307000002be000404be00da
:103c38005e0a9000cfa2de000400be0012f3070067
:103c48000002be000401be000800be0066f30700c3
:103c58000002be000403be00e4438000f543800078
:103c68000401be000600be00c1f107000002be004c
:103c7800e4438800f54388003eb99700ceb9970021
:103c88003e009000ce00900057f307000002be00ef
:103c980002002000a34724000400be0052f30700de
:103ca8000002be000404be005e0a9000cfa2de003f
:103cb8000400be00f4f207000002be000401be00ca
:103cc8000800be0089f207000002be0074079800d1
:103cd800050f98001eba9700cfa2de000400be00b0
:103ce800e9f207000003be00e4438000f5438000ca
:103cf80018c0b3000401be000600be00bdf20700f4
:103d080000027800e00f5200010034000044eb008c
:103d1800e04f5400080032001eba9700cfa2de0020
:103d28000400be00d8f207000002be00e443880089
:103d3800f5438800180037000eba9700cfa2de00be
:103d48000400be00d0f207000003be00e443800078
:103d5800f543800018c0b3000401be000600be0091
:103d6800a6f2070000027800e00f520001003d00b3
:103d78000044eb00e04f5400070032000eba9700f1
:103d8800cfa2de000400be00bff207000002be00a2
:103d9800e4438800f5438800e4438000f54380004d
:103da800140f9800250f98007e0190008e0990004e
:103db8005e009000ee0090006df107000002be006a
:103dc8000404be0002002000031224001e08900014
:103dd800ae08900045f207000002be000401be00d4
:103de8000800be0062f107000002be00048fbe009a
:103df8002e129000cfa2de000400be00a2f207003f
:103e08000002be0018c0b3001e01be000400be00c0
:103e180078f2070000027800e00f52000100340039
:103e28000044eb00e04f5400060032002e129000d0
:103e3800cfa2de000400be0093f207000002be001d
:103e4800048fbe002eba9700cfa2de000400be0089
:103e58008df207000002be0018c0b3001e01be00ac
:103e68000400be0065f2070000027800e00f52006f
:103e780001003d000044eb00e04f54000600320012
:103e88002eba9700cfa2de000400be007ef2070023
:103e98000002be00048fbe002e029000cfa2de00fa
:103ea8000400be0078f207000002be00c443880088
:103eb800d54388001e00be0052f207000002be0073
:103ec80004027800040078004f04be000080fa0065
:103ed800000006000200fa00004f780004012000ec
:103ee8002408880004e62000140888000002eb007b
:103ef800040888008460a90005e1a8009e427800b3
:103f080061c262000482fb00610262004322dd009c
:103f18006604800075ff2f0085026300048272002a
:103f2800640488001e427800e04f520006003a0000
:103f3800000000002404800068026200e00f5200c4
:103f4800fcff320005e1a9000080fa00000006002d
:103f58003600f800809fbe00829fbe00849fbe008e
:103f6800869fbe000000fa0010c0b300d9ff07000a
:103f78000080fa004f03be004f02be004f01be0092
:103f88004f00be003600f900004006000200fa00ab
:103f9800000f78000040eb00ceff07001e0fe9007d
:103fa8001e027800e00f5200faff3d000080fa0080
:103fb800000006000200fa00000f78000200370037
:103fc800000000001e0fe9001e027800e00f5200fa
:103fd800fbff3a000080fa00000006000200fa0029
:103fe800000f780004022000940888009e027800e0
:103ff800041d200004aab90004027800740888008f
:104008000002eb005408880084e0a90013e1a9002d
:104018008ce0a800b404800004c0a00004d0a10073
:1040280004e0a100b40488000080fa000000060043
:104038000000fa0013e1a8000080fa000000060062
:104048000000fa0013e1a9000080fa000000060051
:104058003600f800809fbe00829fbe00849fbe008d
:10406800869fbe000000fa0004fd070084e0a90056
:104078000080fa004f03be004f02be004f01be0091
:104088004f00be003600f900004006000000fa00ac
:1040980004032000f40888000082eb00d40888009c
:1040a8000002eb00a4088800f40480000440a0008b
:1040b8000450a0000460a100f40488001e61a90057
:1040c80086a0a9001fe1a9008ea0a8000080fa0020
:1040d800000006000000fa001fe1a8000080fa00b6
:1040e800000006000000fa001fe1a9000080fa00a5
:1040f80000000600849fbe00861f78000000fa00ba
:1041080055168000040220000482620004f0a70013
:104118000402ea000402e9004f22de0004427800ab
:104128000482fb00610262004522dd005616800011
:10413800f5fd2f0085026300048272005416880082
:1041480086a0a9000080fa004f0378004f02be0045
:10415800004006001a00fa00000f9800110f98009e
:10416800220f9800330f9800440f98006022b8007f
:10417800048fbe006022b800240798003507980015
:104188006022b80044079800550798006022b800dc
:1041980064079800750798004e0a9000cfa2de00c9
:1041a8000400be00b8f107000002be0002002000b3
:1041b800a34724000400be004cf107000002be0023
:1041c800048fbe0064458000754580000401be0070
:1041d8000e0890009e08900064f007000002be00e0
:1041e8000403be0044458000554580000401be001c
:1041f8000600be00fcf107000002be000403be007a
:1042080044458000554580000401be000600be00fc
:10421800f5f107000002be00240798003507980052
:104228002e019000be0190001e00be00eef10700b6
:104238000002be000401be004e009000de009000a7
:104248004bf007000002be0044079800550798008d
:1042580064458000754580000401be000e0890008a
:104268009e08900041f007000002be000401be0055
:104278000400be003ef007000002be000403be00ba
:1042880044458000554580000401be000600be007c
:10429800d5f107000002be004e019000de0190003b
:1042a8000400be0032f007000002be002e09900094
:1042b800be0990000400be002df007000002be00f9
:1042c80064079800750798006e019000fe01900041
:1042d8001e00be00c4f107000002be000403be00b9
:1042e80064458000754580000401be000600be00dc
:1042f8001ff007000002be0064458800754588006d
:1043080064458000754580000400be000080fa0006
:10431800000006000600fa00889fbe0010079800fb
:10432800210798001e02900004024200140798001a
:104338009e02900004c02f00048f4200f4c7b3000f
:104348000440780032e0b700f4072000243b8800de
:104358001e027800143b880044042400043b8800b3
:1043680054052000343b8800a40a2000343b880010
:1043780061e7a80000000000053b80000400280059
:1043880004826200e00f5200fbff3a004400240060
:10439800043b88009e0478002e049000880cbb0023
:1043a80044002400043b880054052000343b880066
:1043b800a40a2000343b880061e7a8000000000040
:1043c800053b80000400280004826200e00f5200d0
:1043d800fbff3a004f04be000080fa000000060010
:1043e8000600fa00881f7800200798002e02900027
:1043f8000402420024079800ae02900004c02f0077
:10440800048f4200f4c7b3000440780032e0b700dc
:104418001e0478001804ba00180798001e029000bd
:10442800040078004f0478000080fa0000000600bd
:104438000200fa00000f78001e027800e00f520018
:1044480003003d000002eb00040c88000200370066
:104458001e027800040c88000080fa0000000600a4
:104468000200fa00000f78001e027800e00f5200e8
:1044780003003d000002eb00340c88000200370006
:104488001e027800340c88000080fa000000060044
:104498000200fa00000f78001e027800e00f5200b8
:1044a80003003d000002eb00640c880002003700a6
:1044b8001e027800640c88000080fa0000000600e4
:1044c8000200fa00000f78001e027800e00f520088
:1044d80003003d000002eb00940c88000200370046
:1044e8001e027800940c88000080fa000000060084
:020000040000fa
:1044f800ca08000052000000000000006808000020
:1045080062000000020000000400e800030a000046
:104518000100e80003e803000000080000000000b4
:1045280000000000000000000000000000a04100a2
:1045380000008f00c2f53c008fc2f5003c6f1200ee
:10454800033b000000803f00000000000000000066
:104558000000000000803f000000c800420000008a
:10456800803f000000000000000000000000000084
:104578000000000000000000000000000000000033
:10458800000000000000000000000000000800001b
:1045980068000000000000001c0900000200000084
:0845a80000000000000000000b
:020000040000fa
:0200000401f009
:04000000e3390000e0
:020000040000fa
:0200000401f009
:04000400ff7f00007a
:020000040000fa
:0200000401f009
:040008006c7f000009
:020000040000fa
:0200000401f009
:04001400ffff0000ea
:020000040000fa
:0200000401f009
:04001800feff0000e7
:00000001FF
